{
  "address": "0x14DF563E58807309645B5DE74e959B6F920874b9",
  "abi": [
    {
      "inputs": [
        {
          "internalType": "address",
          "name": "_bzzTokenAddress",
          "type": "address"
        }
      ],
      "stateMutability": "nonpayable",
      "type": "constructor"
    },
    {
      "anonymous": false,
      "inputs": [
        {
          "indexed": false,
          "internalType": "bytes32",
          "name": "bzzhash",
          "type": "bytes32"
        }
      ],
      "name": "CommentCreated",
      "type": "event"
    },
    {
      "anonymous": false,
      "inputs": [
        {
          "indexed": false,
          "internalType": "bytes32",
          "name": "bzzhash",
          "type": "bytes32"
        }
      ],
      "name": "CommentUpdated",
      "type": "event"
    },
    {
      "anonymous": false,
      "inputs": [
        {
          "indexed": false,
          "internalType": "bytes32",
          "name": "bzzhash",
          "type": "bytes32"
        }
      ],
      "name": "ThreadCreated",
      "type": "event"
    },
    {
      "anonymous": false,
      "inputs": [
        {
          "indexed": false,
          "internalType": "bytes32",
          "name": "bzzhash",
          "type": "bytes32"
        }
      ],
      "name": "ThreadUpdated",
      "type": "event"
    },
    {
      "inputs": [],
      "name": "bzzFee",
      "outputs": [
        {
          "internalType": "uint256",
          "name": "",
          "type": "uint256"
        }
      ],
      "stateMutability": "view",
      "type": "function"
    },
    {
      "inputs": [],
      "name": "bzzToken",
      "outputs": [
        {
          "internalType": "contract ERC20",
          "name": "",
          "type": "address"
        }
      ],
      "stateMutability": "view",
      "type": "function"
    },
    {
      "inputs": [
        {
          "internalType": "bytes32",
          "name": "_id",
          "type": "bytes32"
        },
        {
          "internalType": "bytes32",
          "name": "_commentBzzhash",
          "type": "bytes32"
        }
      ],
      "name": "createComment",
      "outputs": [
        {
          "internalType": "bool",
          "name": "succeed",
          "type": "bool"
        }
      ],
      "stateMutability": "nonpayable",
      "type": "function"
    },
    {
      "inputs": [
        {
          "internalType": "bytes32",
          "name": "_threadBzzhash",
          "type": "bytes32"
        }
      ],
      "name": "createThread",
      "outputs": [
        {
          "internalType": "bool",
          "name": "succeed",
          "type": "bool"
        }
      ],
      "stateMutability": "nonpayable",
      "type": "function"
    },
    {
      "inputs": [
        {
          "internalType": "bytes32",
          "name": "_id",
          "type": "bytes32"
        }
      ],
      "name": "downVote",
      "outputs": [
        {
          "internalType": "bool",
          "name": "succeed",
          "type": "bool"
        }
      ],
      "stateMutability": "nonpayable",
      "type": "function"
    },
    {
      "inputs": [
        {
          "internalType": "bytes32",
          "name": "_id",
          "type": "bytes32"
        }
      ],
      "name": "getComment",
      "outputs": [
        {
          "components": [
            {
              "internalType": "bytes32",
              "name": "id",
              "type": "bytes32"
            },
            {
              "internalType": "uint256",
              "name": "index",
              "type": "uint256"
            },
            {
              "internalType": "uint256",
              "name": "timestamp",
              "type": "uint256"
            },
            {
              "internalType": "address",
              "name": "owner",
              "type": "address"
            },
            {
              "internalType": "bytes32",
              "name": "bzzhash",
              "type": "bytes32"
            },
            {
              "internalType": "bytes32",
              "name": "threadBzzhash",
              "type": "bytes32"
            },
            {
              "internalType": "bool",
              "name": "exists",
              "type": "bool"
            },
            {
              "internalType": "bytes32[]",
              "name": "commentIds",
              "type": "bytes32[]"
            },
            {
              "internalType": "int256",
              "name": "rating",
              "type": "int256"
            },
            {
              "internalType": "enum Imageboard.PostType",
              "name": "postType",
              "type": "uint8"
            }
          ],
          "internalType": "struct Imageboard.Post",
          "name": "",
          "type": "tuple"
        }
      ],
      "stateMutability": "view",
      "type": "function"
    },
    {
      "inputs": [
        {
          "internalType": "address",
          "name": "addr",
          "type": "address"
        }
      ],
      "name": "getCommentIdsByAddress",
      "outputs": [
        {
          "internalType": "bytes32[]",
          "name": "",
          "type": "bytes32[]"
        }
      ],
      "stateMutability": "view",
      "type": "function"
    },
    {
      "inputs": [
        {
          "internalType": "address",
          "name": "addr",
          "type": "address"
        }
      ],
      "name": "getFee",
      "outputs": [
        {
          "internalType": "uint256",
          "name": "fee",
          "type": "uint256"
        }
      ],
      "stateMutability": "view",
      "type": "function"
    },
    {
      "inputs": [
        {
          "internalType": "int256",
          "name": "socialScore",
          "type": "int256"
        }
      ],
      "name": "getMultiplier",
      "outputs": [
        {
          "internalType": "uint256",
          "name": "fee",
          "type": "uint256"
        }
      ],
      "stateMutability": "pure",
      "type": "function"
    },
    {
      "inputs": [
        {
          "internalType": "uint256",
          "name": "_page",
          "type": "uint256"
        },
        {
          "internalType": "uint256",
          "name": "_resultsPerPage",
          "type": "uint256"
        }
      ],
      "name": "getPaginatedThreadIds",
      "outputs": [
        {
          "internalType": "bytes32[]",
          "name": "data",
          "type": "bytes32[]"
        }
      ],
      "stateMutability": "view",
      "type": "function"
    },
    {
      "inputs": [
        {
          "internalType": "address",
          "name": "addr",
          "type": "address"
        }
      ],
      "name": "getSocialScore",
      "outputs": [
        {
          "internalType": "int256",
          "name": "",
          "type": "int256"
        }
      ],
      "stateMutability": "view",
      "type": "function"
    },
    {
      "inputs": [
        {
          "internalType": "bytes32",
          "name": "_id",
          "type": "bytes32"
        }
      ],
      "name": "getThread",
      "outputs": [
        {
          "components": [
            {
              "internalType": "bytes32",
              "name": "id",
              "type": "bytes32"
            },
            {
              "internalType": "uint256",
              "name": "index",
              "type": "uint256"
            },
            {
              "internalType": "uint256",
              "name": "timestamp",
              "type": "uint256"
            },
            {
              "internalType": "address",
              "name": "owner",
              "type": "address"
            },
            {
              "internalType": "bytes32",
              "name": "bzzhash",
              "type": "bytes32"
            },
            {
              "internalType": "bytes32",
              "name": "threadBzzhash",
              "type": "bytes32"
            },
            {
              "internalType": "bool",
              "name": "exists",
              "type": "bool"
            },
            {
              "internalType": "bytes32[]",
              "name": "commentIds",
              "type": "bytes32[]"
            },
            {
              "internalType": "int256",
              "name": "rating",
              "type": "int256"
            },
            {
              "internalType": "enum Imageboard.PostType",
              "name": "postType",
              "type": "uint8"
            }
          ],
          "internalType": "struct Imageboard.Post",
          "name": "",
          "type": "tuple"
        }
      ],
      "stateMutability": "view",
      "type": "function"
    },
    {
      "inputs": [
        {
          "internalType": "address",
          "name": "addr",
          "type": "address"
        }
      ],
      "name": "getThreadIdsByAddress",
      "outputs": [
        {
          "internalType": "bytes32[]",
          "name": "",
          "type": "bytes32[]"
        }
      ],
      "stateMutability": "view",
      "type": "function"
    },
    {
      "inputs": [],
      "name": "getTotalThreads",
      "outputs": [
        {
          "internalType": "uint256",
          "name": "",
          "type": "uint256"
        }
      ],
      "stateMutability": "view",
      "type": "function"
    },
    {
      "inputs": [],
      "name": "randomUser",
      "outputs": [
        {
          "internalType": "address",
          "name": "",
          "type": "address"
        }
      ],
      "stateMutability": "view",
      "type": "function"
    },
    {
      "inputs": [],
      "name": "totalUsers",
      "outputs": [
        {
          "internalType": "uint256",
          "name": "",
          "type": "uint256"
        }
      ],
      "stateMutability": "view",
      "type": "function"
    },
    {
      "inputs": [
        {
          "internalType": "bytes32",
          "name": "_id",
          "type": "bytes32"
        }
      ],
      "name": "upVote",
      "outputs": [
        {
          "internalType": "bool",
          "name": "succeed",
          "type": "bool"
        }
      ],
      "stateMutability": "nonpayable",
      "type": "function"
    }
  ],
  "transactionHash": "0xc5dd18943f141a0bb826ea2f9dbafdbb191b28be6a3ae623abed1f29199a0a05",
  "args": [
    "0xdbf3ea6f5bee45c02255b2c26a16f300502f68da"
  ],
  "numDeployments": 1,
  "solcInputHash": "a833155793722a4f4f31173201214157",
  "bytecode": "0x60806040526509184e72a00060005534801561001a57600080fd5b50604051611ba2380380611ba28339810160408190526100399161005e565b600280546001600160a01b0319166001600160a01b039290921691909117905561008e565b60006020828403121561007057600080fd5b81516001600160a01b038116811461008757600080fd5b9392505050565b611b058061009d6000396000f3fe608060405234801561001057600080fd5b506004361061011b5760003560e01c80637e13d15c116100b2578063b728977b11610081578063beddd1e411610066578063beddd1e414610275578063bff1f9e114610288578063e27cd0741461029057600080fd5b8063b728977b1461024f578063b88c91481461026257600080fd5b80637e13d15c146102015780638c20d5871461021457806392bcebd3146102345780639348c30d1461023c57600080fd5b8063420fc4db116100ee578063420fc4db146101af5780635540d51d146101c257806366c112fc146101cb57806378baf511146101ee57600080fd5b80630e475e1f146101205780631abd54201461014657806332e28ece146101665780633eff2a1a14610186575b600080fd5b61013361012e3660046117b8565b6102a3565b6040519081526020015b60405180910390f35b6101596101543660046117d1565b61031a565b60405161013d91906117fa565b61016e610386565b6040516001600160a01b03909116815260200161013d565b6101336101943660046117d1565b6001600160a01b031660009081526007602052604090205490565b60025461016e906001600160a01b031681565b61013360005481565b6101de6101d93660046117b8565b6103b0565b604051901515815260200161013d565b6101596101fc3660046117d1565b6106c2565b6101de61020f36600461183e565b61072c565b6102276102223660046117b8565b610c1b565b60405161013d91906118d3565b600354610133565b6101de61024a3660046117b8565b610e31565b61015961025d36600461183e565b61107f565b6101336102703660046117d1565b6111b8565b6101de6102833660046117b8565b6111f3565b6101336114c5565b61022761029e3660046117b8565b6114d5565b6000600282126102b557506001919050565b600182126102c557506002919050565b600082126102d557506003919050565b60001982126102e657506004919050565b7ffffffffffffffffffffffffffffffffffffffffffffffffffffffffffffffffe821261031557506005919050565b919050565b6001600160a01b03811660009081526005602090815260409182902080548351818402810184019094528084526060939283018282801561037a57602002820191906000526020600020905b815481526020019060010190808311610366575b50505050509050919050565b60008061039a61039560015490565b6115f3565b905060006103a960018361160c565b9392505050565b6000818152600460205260408120600681015460ff166104175760405162461bcd60e51b815260206004820152601f60248201527f746872656164206f7220636f6d6d656e7420646f65736e27742065786973740060448201526064015b60405180910390fd5b6000610422336111b8565b90506000610431826002611695565b60038401549091506001600160a01b0316600061044c610386565b6002546040516323b872dd60e01b81523360048201526001600160a01b038084166024830152604482018790529293509116906323b872dd906064016020604051808303816000875af11580156104a7573d6000803e3d6000fd5b505050506040513d601f19601f820116820180604052508101906104cb919061197f565b6105095760405162461bcd60e51b815260206004820152600f60248201526e3330b4b632b2103a3930b739b332b960891b604482015260640161040e565b6002546040516323b872dd60e01b81523360048201526001600160a01b03848116602483015260448201869052909116906323b872dd906064016020604051808303816000875af1158015610562573d6000803e3d6000fd5b505050506040513d601f19601f82011682018060405250810190610586919061197f565b6105c45760405162461bcd60e51b815260206004820152600f60248201526e3330b4b632b2103a3930b739b332b960891b604482015260640161040e565b6008850180549060006105d6836119b7565b909155505060038501546001600160a01b03166000908152600760205260408120805491610603836119b7565b9091555060019050600986015460ff1660018111156106245761062461189b565b0361065f5784546040519081527f6afe08da36123bd696f172649784e536e9f5c3ce46ea6ad907ad261b0fb937c59060200160405180910390a15b6000600986015460ff16600181111561067a5761067a61189b565b036106b55784546040519081527fa038f516ad9aac8e93bd4195deb64aeee9c3ff496b5d4ca3933f3e78cc6c7c8e9060200160405180910390a15b5060019695505050505050565b6001600160a01b03811660009081526006602090815260409182902080548351818402810184019094528084526060939283018282801561037a57602002820191906000526020600020908154815260200190600101908083116103665750505050509050919050565b6000828152600460205260408120600681015460ff1661078e5760405162461bcd60e51b815260206004820152601f60248201527f746872656164206f7220636f6d6d656e7420646f65736e277420657869737400604482015260640161040e565b6040805133602082015290810184905260009060600160405160208183030381529060405280519060200120905060006107c7336111b8565b905060006107d6826002611695565b60038501549091506001600160a01b031660006107f1610386565b6002546040516323b872dd60e01b81523360048201526001600160a01b038084166024830152604482018790529293509116906323b872dd906064016020604051808303816000875af115801561084c573d6000803e3d6000fd5b505050506040513d601f19601f82011682018060405250810190610870919061197f565b6108ae5760405162461bcd60e51b815260206004820152600f60248201526e3330b4b632b2103a3930b739b332b960891b604482015260640161040e565b6002546040516323b872dd60e01b81523360048201526001600160a01b03848116602483015260448201869052909116906323b872dd906064016020604051808303816000875af1158015610907573d6000803e3d6000fd5b505050506040513d601f19601f8201168201806040525081019061092b919061197f565b6109695760405162461bcd60e51b815260206004820152600f60248201526e3330b4b632b2103a3930b739b332b960891b604482015260640161040e565b60408051610140810182528681526000602082015242918101919091523360608201526080810189905260a081016001600989015460ff1660018111156109b2576109b261189b565b146109c15787600401546109c7565b87600501545b81526001602082015260400160006040519080825280602002602001820160405280156109fe578160200160208202803683370190505b508152600060208201526040016001905260008681526004602081815260409283902084518155848201516001820155928401516002840155606084015160038401805473ffffffffffffffffffffffffffffffffffffffff19166001600160a01b0390921691909117905560808401519183019190915560a0830151600583015560c083015160068301805460ff191691151591909117905560e08301518051610aaf9260078501920190611758565b50610100820151600882015561012082015160098201805460ff191660018381811115610ade57610ade61189b565b0217905550505060078601805460018181018355600092835260208084209092018890553380845260068352604084208054808401825590855292909320909101879055610b2b916116a1565b6001600987015460ff166001811115610b4657610b4661189b565b03610b815785546040519081527f6afe08da36123bd696f172649784e536e9f5c3ce46ea6ad907ad261b0fb937c59060200160405180910390a15b6000600987015460ff166001811115610b9c57610b9c61189b565b03610bd75785546040519081527fa038f516ad9aac8e93bd4195deb64aeee9c3ff496b5d4ca3933f3e78cc6c7c8e9060200160405180910390a15b6040518581527f562fb17dae5b598e4930aa3e2c6dab2d865228cc283548ae261cb65b4349e9699060200160405180910390a1600196505050505050505b92915050565b610c6f604080516101408101825260008082526020820181905291810182905260608082018390526080820183905260a0820183905260c0820183905260e082015261010081018290529061012082015290565b6000828152600460205260409020600681015460ff16610cd15760405162461bcd60e51b815260206004820152601560248201527f636f6d6d656e7420646f65736e27742065786973740000000000000000000000604482015260640161040e565b6001600982015460ff166001811115610cec57610cec61189b565b14610d395760405162461bcd60e51b815260206004820152601560248201527f74686973206973206e6f74206120636f6d6d656e740000000000000000000000604482015260640161040e565b604080516101408101825282548152600183015460208083019190915260028401548284015260038401546001600160a01b0316606083015260048401546080830152600584015460a0830152600684015460ff16151560c08301526007840180548451818402810184019095528085529293859360e0860193919291830182828015610de557602002820191906000526020600020905b815481526020019060010190808311610dd1575b505050918352505060088201546020820152600982015460409091019060ff166001811115610e1657610e1661189b565b6001811115610e2757610e2761189b565b9052509392505050565b6000818152600460205260408120600681015460ff16610e935760405162461bcd60e51b815260206004820152601f60248201527f746872656164206f7220636f6d6d656e7420646f65736e277420657869737400604482015260640161040e565b6000610e9e336111b8565b90506000610ead826002611695565b60038401549091506001600160a01b03166000610ec8610386565b6002546040516323b872dd60e01b81523360048201526001600160a01b038084166024830152604482018790529293509116906323b872dd906064016020604051808303816000875af1158015610f23573d6000803e3d6000fd5b505050506040513d601f19601f82011682018060405250810190610f47919061197f565b610f855760405162461bcd60e51b815260206004820152600f60248201526e3330b4b632b2103a3930b739b332b960891b604482015260640161040e565b6002546040516323b872dd60e01b81523360048201526001600160a01b03848116602483015260448201869052909116906323b872dd906064016020604051808303816000875af1158015610fde573d6000803e3d6000fd5b505050506040513d601f19601f82011682018060405250810190611002919061197f565b6110405760405162461bcd60e51b815260206004820152600f60248201526e3330b4b632b2103a3930b739b332b960891b604482015260640161040e565b60088501805490600061105283611a05565b909155505060038501546001600160a01b0316600090815260076020526040812080549161060383611a05565b606060008261108e8582611a3e565b6110989190611a55565b60035490915015806110ab575060035481115b156110c6575050604080516000815260208101909152610c15565b60008367ffffffffffffffff8111156110e1576110e16119ef565b60405190808252806020026020018201604052801561110a578160200160208202803683370190505b50905060005b61111a8686611a3e565b8310156111af5760035483101561116c576003838154811061113e5761113e611a68565b906000526020600020015482828151811061115b5761115b611a68565b60200260200101818152505061118f565b6000801b82828151811061118257611182611a68565b6020026020010181815250505b8061119981611a7e565b91505082806111a790611a7e565b935050611110565b50949350505050565b6001600160a01b038116600090815260076020526040812054816111db826102a3565b9050806000546111eb9190611a3e565b949350505050565b604080513360208201529081018290526000908190606001604051602081830303815290604052805190602001209050600061122e60015490565b111561130b57600061123f336111b8565b9050600061124b610386565b6002546040516323b872dd60e01b81523360048201526001600160a01b038084166024830152604482018690529293509116906323b872dd906064016020604051808303816000875af11580156112a6573d6000803e3d6000fd5b505050506040513d601f19601f820116820180604052508101906112ca919061197f565b6113085760405162461bcd60e51b815260206004820152600f60248201526e3330b4b632b2103a3930b739b332b960891b604482015260640161040e565b50505b6040805161014081018252828152600380546020808401918252428486019081523360608601908152608086018a815260a087018b8152600160c089018181528a5160008082528189018d5260e08c019182526101008c018190526101208c018190528d81526004808a529c90208b518155985192890192909255945160028801559251968601805473ffffffffffffffffffffffffffffffffffffffff19166001600160a01b0390981697909717909655519684019690965592516005830155915160068201805460ff1916911515919091179055925180519293926113f89260078501920190611758565b50610100820151600882015561012082015160098201805460ff1916600183818111156114275761142761189b565b0217905550506003805460018181019092557fc2575a0e9e593c00f959f8c92f12db2869c3395a3b0502d05e2516446f71f85b0183905533600081815260056020908152604082208054808601825590835291200184905561148992506116a1565b6040518181527f77a9ac504d74f3934515d32027dc3396aa4e93bdf67bfec0a7f60da6fb0d3ace9060200160405180910390a150600192915050565b60006114d060015490565b905090565b611529604080516101408101825260008082526020820181905291810182905260608082018390526080820183905260a0820183905260c0820183905260e082015261010081018290529061012082015290565b6000828152600460205260409020600681015460ff1661158b5760405162461bcd60e51b815260206004820152601460248201527f74687265616420646f65736e2774206578697374000000000000000000000000604482015260640161040e565b6000600982015460ff1660018111156115a6576115a661189b565b14610d395760405162461bcd60e51b815260206004820152601460248201527f74686973206973206e6f74206120746872656164000000000000000000000000604482015260640161040e565b600081611601600143611a55565b610c15919040611aa7565b6000611616835490565b82106116645760405162461bcd60e51b815260206004820152601a60248201527f74686520696e646578206973206f7574206f6620626f756e6473000000000000604482015260640161040e565b82600001828154811061167957611679611a68565b6000918252602090912001546001600160a01b03169392505050565b60006103a98284611abb565b6116ab82826116ec565b6116e857815460018101835560008381526020902001805473ffffffffffffffffffffffffffffffffffffffff19166001600160a01b0383161790555b5050565b6000805b835481101561174e57826001600160a01b031684600001828154811061171857611718611a68565b6000918252602090912001546001600160a01b03160361173c576001915050610c15565b8061174681611a7e565b9150506116f0565b5060009392505050565b828054828255906000526020600020908101928215611793579160200282015b82811115611793578251825591602001919060010190611778565b5061179f9291506117a3565b5090565b5b8082111561179f57600081556001016117a4565b6000602082840312156117ca57600080fd5b5035919050565b6000602082840312156117e357600080fd5b81356001600160a01b03811681146103a957600080fd5b6020808252825182820181905260009190848201906040850190845b8181101561183257835183529284019291840191600101611816565b50909695505050505050565b6000806040838503121561185157600080fd5b50508035926020909101359150565b600081518084526020808501945080840160005b8381101561189057815187529582019590820190600101611874565b509495945050505050565b634e487b7160e01b600052602160045260246000fd5b600281106118cf57634e487b7160e01b600052602160045260246000fd5b9052565b602081528151602082015260208201516040820152604082015160608201526000606083015161190e60808401826001600160a01b03169052565b50608083015160a083015260a083015160c083015260c083015161193660e084018215159052565b5060e08301516101406101008181860152611955610160860184611860565b9086015161012086810191909152860151909250611975828601826118b1565b5090949350505050565b60006020828403121561199157600080fd5b815180151581146103a957600080fd5b634e487b7160e01b600052601160045260246000fd5b60007f7fffffffffffffffffffffffffffffffffffffffffffffffffffffffffffffff82036119e8576119e86119a1565b5060010190565b634e487b7160e01b600052604160045260246000fd5b60007f80000000000000000000000000000000000000000000000000000000000000008203611a3657611a366119a1565b506000190190565b8082028115828204841417610c1557610c156119a1565b81810381811115610c1557610c156119a1565b634e487b7160e01b600052603260045260246000fd5b600060001982036119e8576119e86119a1565b634e487b7160e01b600052601260045260246000fd5b600082611ab657611ab6611a91565b500690565b600082611aca57611aca611a91565b50049056fea264697066735822122079c2a79421373d5c99c6cb5f7ba6625965720de9baf1b5ab4915f872d04bc2b964736f6c63430008110033",
  "devdoc": {
    "kind": "dev",
    "methods": {},
    "version": 1
  },
  "userdoc": {
    "kind": "user",
    "methods": {},
    "version": 1
  },
  "storageLayout": {
    "storage": [
      {
        "astId": 9158,
        "contract": "src/Imageboard/Imageboard.sol:Imageboard",
        "label": "bzzFee",
        "offset": 0,
        "slot": "0",
        "type": "t_uint256"
      },
      {
        "astId": 9161,
        "contract": "src/Imageboard/Imageboard.sol:Imageboard",
        "label": "userAddresses",
        "offset": 0,
        "slot": "1",
        "type": "t_struct(Addresses)10109_storage"
      },
      {
        "astId": 9164,
        "contract": "src/Imageboard/Imageboard.sol:Imageboard",
        "label": "bzzToken",
        "offset": 0,
        "slot": "2",
        "type": "t_contract(ERC20)585"
      },
      {
        "astId": 9167,
        "contract": "src/Imageboard/Imageboard.sol:Imageboard",
        "label": "threadIds",
        "offset": 0,
        "slot": "3",
        "type": "t_array(t_bytes32)dyn_storage"
      },
      {
        "astId": 9172,
        "contract": "src/Imageboard/Imageboard.sol:Imageboard",
        "label": "posts",
        "offset": 0,
        "slot": "4",
        "type": "t_mapping(t_bytes32,t_struct(Post)9228_storage)"
      },
      {
        "astId": 9177,
        "contract": "src/Imageboard/Imageboard.sol:Imageboard",
        "label": "addressToThreadIds",
        "offset": 0,
        "slot": "5",
        "type": "t_mapping(t_address,t_array(t_bytes32)dyn_storage)"
      },
      {
        "astId": 9182,
        "contract": "src/Imageboard/Imageboard.sol:Imageboard",
        "label": "addressToCommentIds",
        "offset": 0,
        "slot": "6",
        "type": "t_mapping(t_address,t_array(t_bytes32)dyn_storage)"
      },
      {
        "astId": 9186,
        "contract": "src/Imageboard/Imageboard.sol:Imageboard",
        "label": "addressToSocialScore",
        "offset": 0,
        "slot": "7",
        "type": "t_mapping(t_address,t_int256)"
      }
    ],
    "types": {
      "t_address": {
        "encoding": "inplace",
        "label": "address",
        "numberOfBytes": "20"
      },
      "t_array(t_address)dyn_storage": {
        "base": "t_address",
        "encoding": "dynamic_array",
        "label": "address[]",
        "numberOfBytes": "32"
      },
      "t_array(t_bytes32)dyn_storage": {
        "base": "t_bytes32",
        "encoding": "dynamic_array",
        "label": "bytes32[]",
        "numberOfBytes": "32"
      },
      "t_bool": {
        "encoding": "inplace",
        "label": "bool",
        "numberOfBytes": "1"
      },
      "t_bytes32": {
        "encoding": "inplace",
        "label": "bytes32",
        "numberOfBytes": "32"
      },
      "t_contract(ERC20)585": {
        "encoding": "inplace",
        "label": "contract ERC20",
        "numberOfBytes": "20"
      },
      "t_enum(PostType)9189": {
        "encoding": "inplace",
        "label": "enum Imageboard.PostType",
        "numberOfBytes": "1"
      },
      "t_int256": {
        "encoding": "inplace",
        "label": "int256",
        "numberOfBytes": "32"
      },
      "t_mapping(t_address,t_array(t_bytes32)dyn_storage)": {
        "encoding": "mapping",
        "key": "t_address",
        "label": "mapping(address => bytes32[])",
        "numberOfBytes": "32",
        "value": "t_array(t_bytes32)dyn_storage"
      },
      "t_mapping(t_address,t_int256)": {
        "encoding": "mapping",
        "key": "t_address",
        "label": "mapping(address => int256)",
        "numberOfBytes": "32",
        "value": "t_int256"
      },
      "t_mapping(t_bytes32,t_struct(Post)9228_storage)": {
        "encoding": "mapping",
        "key": "t_bytes32",
        "label": "mapping(bytes32 => struct Imageboard.Post)",
        "numberOfBytes": "32",
        "value": "t_struct(Post)9228_storage"
      },
      "t_struct(Addresses)10109_storage": {
        "encoding": "inplace",
        "label": "struct AddrArrayLib.Addresses",
        "members": [
          {
            "astId": 10108,
            "contract": "src/Imageboard/Imageboard.sol:Imageboard",
            "label": "_items",
            "offset": 0,
            "slot": "0",
            "type": "t_array(t_address)dyn_storage"
          }
        ],
        "numberOfBytes": "32"
      },
      "t_struct(Post)9228_storage": {
        "encoding": "inplace",
        "label": "struct Imageboard.Post",
        "members": [
          {
            "astId": 9207,
            "contract": "src/Imageboard/Imageboard.sol:Imageboard",
            "label": "id",
            "offset": 0,
            "slot": "0",
            "type": "t_bytes32"
          },
          {
            "astId": 9209,
            "contract": "src/Imageboard/Imageboard.sol:Imageboard",
            "label": "index",
            "offset": 0,
            "slot": "1",
            "type": "t_uint256"
          },
          {
            "astId": 9211,
            "contract": "src/Imageboard/Imageboard.sol:Imageboard",
            "label": "timestamp",
            "offset": 0,
            "slot": "2",
            "type": "t_uint256"
          },
          {
            "astId": 9213,
            "contract": "src/Imageboard/Imageboard.sol:Imageboard",
            "label": "owner",
            "offset": 0,
            "slot": "3",
            "type": "t_address"
          },
          {
            "astId": 9215,
            "contract": "src/Imageboard/Imageboard.sol:Imageboard",
            "label": "bzzhash",
            "offset": 0,
            "slot": "4",
            "type": "t_bytes32"
          },
          {
            "astId": 9217,
            "contract": "src/Imageboard/Imageboard.sol:Imageboard",
            "label": "threadBzzhash",
            "offset": 0,
            "slot": "5",
            "type": "t_bytes32"
          },
          {
            "astId": 9219,
            "contract": "src/Imageboard/Imageboard.sol:Imageboard",
            "label": "exists",
            "offset": 0,
            "slot": "6",
            "type": "t_bool"
          },
          {
            "astId": 9222,
            "contract": "src/Imageboard/Imageboard.sol:Imageboard",
            "label": "commentIds",
            "offset": 0,
            "slot": "7",
            "type": "t_array(t_bytes32)dyn_storage"
          },
          {
            "astId": 9224,
            "contract": "src/Imageboard/Imageboard.sol:Imageboard",
            "label": "rating",
            "offset": 0,
            "slot": "8",
            "type": "t_int256"
          },
          {
            "astId": 9227,
            "contract": "src/Imageboard/Imageboard.sol:Imageboard",
            "label": "postType",
            "offset": 0,
            "slot": "9",
            "type": "t_enum(PostType)9189"
          }
        ],
        "numberOfBytes": "320"
      },
      "t_uint256": {
        "encoding": "inplace",
        "label": "uint256",
        "numberOfBytes": "32"
      }
    }
  }
}